S011000049525F72656D6F74652E737265638D
S11300001CC036C035C034C033C032C031C030C06B
S11300103DC09AC12DC02CC02BC02AC029C028C005
S113002027C026C025C0CEC0D1C0BCC0BDC0BEC084
S1130030BFC0C0C0C1C0C2C0C3C011241FBECFE571
S1130040D4E0DEBFCDBF10E0A0E6B0E0E8EFF3E01F
S113005002C005900D92A036B107D9F720E0A0E6C2
S1130060B0E001C01D92AD36B207E1F7AED1C2C116
S1130070C7CF8F9A1FBC82E08EBD89B7846089BFC9
S11300808FEF8DBD85EF8CBD789408951F920F92EC
S11300900FB60F9211242F938F939F938FEF8DBDE3
S11300A085EF8CBD8091620090916300853F21E0D3
S11300B0920730F40196909363008093620007C026
S11300C082B3805882BB10926300109262008091C8
S11300D060009091610001969093610080936000AC
S11300E09F918F912F910F900FBE0F901F90189595
S11300F081B38F6081BB82B3807F82BB0895919866
S113010027E030E0E1E0F0E090E0AF01022E02C031
S1130110440F551F0A94E2F7BC0164237523461764
S1130120570741F4909A42E04A95F1F700C0919A3A
S1130130919807C0909842E04A95F1F700C0919ACF
S113014091982150310908F708959298929A82E083
S11301508A95F1F700C093980895CF93C62F939A88
S1130160823061F018F4813031F011C0833049F0ED
S1130170843051F00CC087EFC2DF0BC08BEFBFDFC0
S113018008C08DEFBCDF05C08EEFB9DF02C08FEF72
S1130190B6DF8C2F90E08A309105B0F4FC01ED5E5F
S11301A0FF4F099484EA13C080EB11C089E90FC0A2
S11301B082E90DC082E80BC088EF09C080E807C05F
S11301C080E905C080EC03C08FEF01C089EF97DFA1
S11301D080E090E0BADFCF9108958A3050F09DEC32
S11301E0899F912D112496959695969590936700E5
S11301F003C09AE0909367009DEC899F912D112490
S1130200969596959695990F292F220F220F920F66
S1130210891B809366006A3050F08DEC689F812DB5
S113022011248695869586958093650002C0109268
S113023065008DEC689F812D1124869586958695A1
S1130240880F982F990F990F890F681B609364008A
S11302506091640081E081DF6091650082E07DDF70
S11302606091660083E079DF6091670084E075DF68
S1130270089597E0E1E0F0E0682F70E09F01092E17
S113028002C0220F331F0A94E2F7AB014223532327
S11302902417350781F482E08A95F1F700C0A89A03
S11302A08AE08A95F1F700C0A99A8DE08A95F1F762
S11302B00000A9980FC082E08A95F1F700C0A898C1
S11302C08AE08A95F1F700C0A99A8DE08A95F1F742
S11302D00000A9989150D2CF85E38A95F1F70000E8
S11302E0A89A82E08A95F1F700C0A99A82E08A95DB
S11302F0F1F700C0A8988DE08A95F1F70000A9985D
S11303008EEDB7DF85E38A95F1F70000A89A82E0C5
S11303108A95F1F700C0A99A82E08A95F1F700C0A6
S1130320A8988DE08A95F1F70000A9988EEDA1DFD9
S113033060E087E0D1DF83E083BF89B7816089BF54
S113034083E882BF789408951F920F920FB60F929C
S113035011242F938F939F9383E882BF80916B0026
S113036090916C008E3E23E0920730F401969093B6
S11303706C0080936B0017C080916A0090E0019636
S1130380CC9744F010926A00809169008F5F80934B
S1130390690005C080916A008F5F80936A001092A3
S11303A06C0010926B009F918F912F910F900FBE54
S11303B00F901F90189581E087BB18BA0895FBDF52
S11303C097DEB9DF56DEB4DF0895F9DF84E1809368
S11303D0680085E38093690081E094DF809369007D
S11303E082E090DF809368006091690080916800EA
S10B03F0F4DEF2CFF894FFCF14
S9030000FC
