:100000001CC036C035C034C033C032C031C030C06F
:100010003DC0A3C12DC02CC02BC02AC029C028C000
:1000200027C026C025C0CBC0CEC0B9C0BAC0BBC097
:10003000BCC0BDC0BEC0BFC0C0C011241FBECFE584
:10004000D4E0DEBFCDBF10E0A0E6B0E0ECE1F4E02C
:1000500002C005900D92A036B107D9F720E0A0E6C6
:10006000B0E001C01D92AD36B207E1F7B6D1D4C100
:10007000C7CF8F9A1FBC82E08EBD89B7846089BFCD
:100080008FEF8DBD85EF8CBD789408951F920F92F0
:100090000FB60F9211248F939F938FEF8DBD85EF35
:1000A0008CBD80916200909163008237910530F49D
:1000B0000196909363008093620007C082B38058DA
:1000C00082BB109263001092620080916000909158
:1000D0006100019690936100809360009F918F91E1
:1000E0000F900FBE0F901F90189581B38F6081BB4A
:1000F00082B3807F82BB0895919827E030E0E1E0F1
:10010000F0E090E0AF01022E02C0440F551F0A94A8
:10011000E2F7BC01642375234617570741F4909A10
:1001200042E04A95F1F700C0919A919807C09098E3
:1001300042E04A95F1F700C0919A91982150310917
:1001400008F708959298929A82E08A95F1F700C094
:1001500093980895CF93C62F939A823061F018F444
:10016000813031F011C0833049F0843051F00CC03F
:1001700087EFC2DF0BC08BEFBFDF08C08DEFBCDFA6
:1001800005C08EEFB9DF02C08FEFB6DF8C2F90E095
:100190008A309105B0F4FC01ED5EFF4F099484EACA
:1001A00013C080EB11C089E90FC082E90DC082E85D
:1001B0000BC088EF09C080E807C080E905C080EC6B
:1001C00003C08FEF01C089EF97DF80E090E0BADFD6
:1001D000CF9108958A3050F09DEC899F912D112484
:1001E0009695969596959093670003C09AE09093A4
:1001F00067009DEC899F912D112496959695969573
:10020000990F292F220F220F920F891B80936600CE
:100210006A3050F08DEC689F812D1124869586956B
:1002200086958093650002C0109265008DEC689FF2
:10023000812D1124869586958695880F982F990F84
:10024000990F890F681B609364006091640081E0DE
:1002500081DF6091650082E07DDF6091660083E070
:1002600079DF6091670084E075DF089584EA86BFD6
:1002700006B607FEFDCF81B108958EED83B984E8FF
:1002800086BF06B607FEFDCF089583B984E886BF12
:1002900006B607FEFDCF089584EA86BF06B607FEC0
:1002A000FDCF08958FED83B984E886BF06B607FEBB
:1002B000FDCF089584E886BF06B607FEFDCF83B163
:1002C0000895D4DFDADF80E0E0DF80E8DEDF80E47D
:1002D000DCDF82E0DADF84E986BF0895C7DFCDDFA7
:1002E00080E0D3DFD9DFDEDFE5DF94E996BF982F2A
:1002F0009077969596959695292F220F220F920F1B
:100300008F70890F0895B2DFB8DF81E0BEDFC4DFF0
:10031000C9DFD0DF94E996BF982F90779695969590
:100320009695292F220F220F920F8F70890F089513
:100330009DDFA3DF82E0A9DFAFDFB4DFBBDF94E99D
:1003400096BF982F9073969596959695292F220F84
:10035000220F920F8F70890F08951F920F920FB680
:100360000F9211242F938F939F9383E882BF8091E4
:100370006B0090916C008E3E23E0920730F4019662
:1003800090936C0080936B0017C080916A0090E09E
:100390000196CC9744F010926A00809169008F5FBB
:1003A0008093690005C080916A008F5F80936A0026
:1003B00010926C0010926B009F918F912F910F9073
:1003C0000FBE0F901F90189581E087BB18BA089553
:1003D000FBDF8BDE4EDE75DF0895FADF72DF7EDF36
:1003E00080936A0090DF80936900A2DF80936800A9
:1003F0006091690080916800EDDECAE08FEC97E0C3
:100400000197F1F700C000006091690080916800D9
:0C041000E1DEC15099F7E3CFF894FFCF74
:00000001FF
