S011000049525F72656D6F74652E737265638D
S11300001CC036C035C034C033C032C031C030C06B
S11300103DC038C12DC02CC02BC02AC029C028C067
S113002027C026C025C0CEC0D1C0BCC0BDC0BEC084
S1130030BFC0C0C0C1C0C2C0C3C011241FBECFE571
S1130040D4E0DEBFCDBF10E0A0E6B0E0E6E1F3E02F
S113005002C005900D92A036B107D9F720E0A0E6C2
S1130060B0E001C01D92AC36B207E1F74BD151C1EB
S1130070C7CF8F9A1FBC82E08EBD89B7846089BFC9
S11300808FEF8DBD85EF8CBD789408951F920F92EC
S11300900FB60F9211242F938F939F938FEF8DBDE3
S11300A085EF8CBD8091620090916300853F21E0D3
S11300B0920730F40196909363008093620007C026
S11300C082B3805882BB10926300109262008091C8
S11300D060009091610001969093610080936000AC
S11300E09F918F912F910F900FBE0F901F90189595
S11300F081B38F6081BB82B3807F82BB0895919866
S113010027E030E0E1E0F0E090E0AF01022E02C031
S1130110440F551F0A94E2F7BC0164237523461764
S1130120570741F4909A42E04A95F1F700C0919A3A
S1130130919807C0909842E04A95F1F700C0919ACF
S113014091982150310908F708959298929A82E083
S11301508A95F1F700C093980895CF93C62F939A88
S1130160823061F018F4813031F011C0833049F0ED
S1130170843051F00CC087EFC2DF0BC08BEFBFDFC0
S113018008C08DEFBCDF05C08EEFB9DF02C08FEF72
S1130190B6DF8C2F90E08A309105B0F4FC01ED5E5F
S11301A0FF4F099484EA13C080EB11C089E90FC0A2
S11301B082E90DC082E80BC088EF09C080E807C05F
S11301C080E905C080EC03C08FEF01C089EF97DFA1
S11301D080E090E0BADFCF9108958A3050F09DEC32
S11301E0899F912D112496959695969590936700E5
S11301F003C09AE0909367009DEC899F912D112490
S1130200969596959695990F292F220F220F920F66
S1130210891B809366006A3050F08DEC689F812DB5
S113022011248695869586958093650002C0109268
S113023065008DEC689F812D1124869586958695A1
S1130240880F982F990F990F890F681B609364008A
S11302506091640081E081DF6091650082E07DDF70
S11302606091660083E079DF6091670084E075DF68
S1130270089583E083BF89B7816089BF83E882BF23
S1130280789408951F920F920FB60F9211242F9312
S11302908F939F9383E882BF80916A0090916B0053
S11302A0883E23E0920730F4019690936B0080938C
S11302B06A0017C08091690090E00196CC9744F0E1
S11302C010926900809168008F5F8093680005C078
S11302D0809169008F5F8093690010926B00109287
S11302E06A009F918F912F910F900FBE0F901F90D6
S11302F0189581E087BB18BA0895FBDFF9DEB9DFF2
S1130300B8DE0895FADF609169008091680065DFC6
S1090310FACFF894FFCFC0
S9030000FC
