:1000000012C02CC02BC02AC029C028C027C026C0BF
:10001000EAC0C0C023C022C021C020C01FC01EC073
:100020001DC01CC01BC011241FBECFE5D4E0DEBF25
:10003000CDBF10E0A0E6B0E0EEE4F2E002C0059033
:100040000D92A036B107D9F720E0A0E6B0E001C0DC
:100050001D92A836B207E1F77ED0F7C0D1CF8FE866
:1000600096E00197F1F700C0000080E29FEF98BB97
:1000700022E12A95F1F700C018BA25E32A95F1F795
:1000800000008150A1F7089580E29FEF98BB22E124
:100090002A95F1F700C018BA25E32A95F1F7000078
:1000A0008150A1F78FE896E00197F1F700C00000BA
:1000B0000895CF92DF92EF92FF920F931F93CF9309
:1000C000DF93E82E062FCBDFCADF80916600811117
:1000D00002C0DADF01C0C3DF9091660081E08927AA
:1000E00080936600C4E0D0E0CC24C394D12CF12CE2
:1000F00096010C2E02C0220F331F0A94E2F7A701CB
:10010000422353232417350711F4A9DF01C0BCDFB4
:10011000219770F7C5E0D0E0EE24E394F12C10E0D5
:10012000C7010C2E02C0880F991F0A94E2F79801AC
:10013000282339238217930711F491DF01C0A4DF2C
:10014000219770F7DF91CF911F910F91FF90EF9062
:10015000DF90CF9008958FEF87BB18BA81BB84BB27
:1001600093E093BF1FBC92E09EBD95E099BF93E8DA
:1001700092BF8DBD85EF8CBD78946FE381E199DFEF
:100180002FEF80E792E0215080409040E1F700C0DF
:100190000000F3CF1F920F920FB60F9211242F93EE
:1001A0008F939F9383E882BF809164009091650054
:1001B000883E23E0920730F4019690936500809387
:1001C000640009C0809167008F5F80936700109280
:1001D0006500109264009F918F912F910F900FBE38
:1001E0000F901F9018951F920F920FB60F92112427
:1001F0002F938F939F938FEF8DBD85EF8CBD809153
:10020000620090916300853F21E0920730F40196EF
:10021000909363008093620007C082B3805882BBD2
:1002200010926300109262008091600090916100D2
:10023000019690936100809360009F918F912F9120
:0E0240000F900FBE0F901F901895F894FFCFEF
:00000001FF
